:100000000C942A000C943F000C943F000C943F0089
:100010000C943F000C943F000C943F000C943F0064
:100020000C943F000C943F000C943F000C943F0054
:100030000C943F000C943F000C943F000C943F0044
:100040000C943F000C943F000C943F000C943F0034
:100050000C943F0011241FBECFE5D8E0DEBFCDBF1A
:1000600011E0A0E6B0E0EEEFFBE002C005900D92DB
:10007000AA33B107D9F70E9459050C94FD050C94D9
:1000800000008FEF8ABB87BB84BB88EF81BB0895DC
:10009000382F8830E0F4613059F42BB381E090E0E0
:1000A00002C0880F991F3A95E2F7282B2BBB0895C1
:1000B000662309F080C02BB381E090E002C0880F76
:1000C000991F3A95E2F7809582238BBB089588505B
:1000D000883020F5613079F448B3232F30E0285080
:1000E000304081E090E002C0880F991F2A95E2F726
:1000F000482B48BB0895662309F05DC048B3232F01
:1001000030E02850304081E090E002C0880F991F15
:100110002A95E2F78095842388BB0895832F805128
:10012000883018F5613079F445B3232F30E0205141
:10013000304081E090E002C0880F991F2A95E2F7D5
:10014000482B45BB08956623B1F545B3232F30E016
:100150002051304081E090E002C0880F991F2A951D
:10016000E2F78095842385BB0895832F88518830DA
:1001700010F5613079F442B3232F30E0285130403C
:1001800081E090E002C0880F991F2A95E2F7482B82
:1001900042BB0895662379F442B3232F30E02851FF
:1001A000304081E090E002C0880F991F2A95E2F765
:1001B0008095842382BB0895482F883040F489B30A
:1001C00090E002C0959587954A95E2F718C088504F
:1001D000883030F426B330E0842F90E0089709C0CF
:1001E000842F8051883068F423B330E0842F90E06E
:1001F000409702C0359527958A95E2F7822F817046
:100200000895842F8851883060F420B330E0842F23
:1002100090E0489702C0359527958A95E2F7822F9E
:10022000817008958FB780688FBF089516BE85E0EE
:1002300080B911B886B7806886BF109886B7846089
:1002400086BF089586B7806886BF0895982F86B7C1
:10025000806886BF86B7806286BF06B607FEFDCF80
:1002600081B186B78F7D86BF990F93B986B78068B5
:1002700086BF06B607FEFDCF81B163B986B7806839
:1002800086BF06B607FEFDCF81B186B7806886BF00
:1002900086B7806186BF80E89BEB0197F1F70895F0
:1002A000982F86B7806886BF86B7806286BF06B6FD
:1002B00007FEFDCF81B186B78F7D86BF990F916014
:1002C00093B986B7806886BF06B607FEFDCF81B1B9
:1002D00086B7806886BF06B607FEFDCF83B191B1B1
:1002E00096B7906896BF96B7906196BF089586B707
:1002F000806886BF86B78F7D86BF86B78F7E86BFB4
:1003000006B607FEFDCF81B181B1887F8039E1F764
:1003100083B181B1887F8039E1F780E00895089545
:10032000282F40EA34E886B7846086BF86B78062AB
:1003300086BF86B7806886BF06B607FEFDCF81B14F
:10034000887F883011F081E0089543B936BF06B642
:1003500007FEFDCF81B1887F883111F082E00895DA
:1003600081B1887F8831F9F693B984E886BF06B6F3
:1003700007FEFDCF81B1887F883211F088E00895B3
:1003800023B984E886BF06B607FEFDCF81B1887F1A
:10039000883211F083E0089563B984E886BF06B619
:1003A00007FEFDCF81B1887F883211F084E0089587
:1003B00084E986BF06B604FEFDCF80E89BEB01977B
:1003C000F1F781E10895282F40EA34E886B7846088
:1003D00086BF86B7806886BF86B7806286BF06B64E
:1003E00007FEFDCF81B143B936BF06B607FEFDCF8C
:1003F00081B181B1887F883149F793B986B784602C
:1004000086BF86B7806886BF06B607FEFDCF81B17E
:10041000887F883211F098E028C023B984E886BF2D
:1004200006B607FEFDCF81B184EA86BF06B607FE99
:10043000FDCF81B181EA83B984E886BF06B607FEA5
:10044000FDCF81B184E886BF06B607FEFDCF81B13E
:1004500093B186B7846086BF86B7806886BF86B74B
:10046000806186BF06B604FEFDCF892F08958BE01C
:1004700061E00E94480080EA9FE00197F1F78BE07D
:1004800060E00E94480084EF91E020E931E0F9014A
:100490003197F1F70197D9F708951F93182F89E045
:1004A00060E00E9448008AE060E00E944800612FFE
:1004B000661F6627661F87E00E944800612F6295CD
:1004C00066956695617086E00E944800612F62958E
:1004D0006695617085E00E944800612F62956170A9
:1004E00084E00E9448000E943702612F669566955D
:1004F0006695617087E00E944800612F6695669559
:10050000617086E00E944800612F6695617085E009
:100510000E944800117084E0612F0E9448000E94F0
:1005200037021F91089582E00E944D02089581E0F4
:100530000E944D020895882329F4862F80680E9426
:100540004D020895813021F4862F806C0E944D0267
:1005500008950F931F9384EF91E020E931E0F901B2
:100560003197F1F70197D9F788E20E944D0200EA2E
:100570001FE0C8010197F1F78EE00E944D02C8010B
:100580000197F1F781E00E944D0280EE9EE2019713
:10059000F1F786E00E944D021F910F9108951F937D
:1005A000182F89E061E00E9448008AE060E00E9424
:1005B0004800612F661F6627661F87E00E9448007B
:1005C000612F629566956695617086E00E9448008D
:1005D000612F62956695617085E00E944800612FE9
:1005E0006295617084E00E9448000E943702612F8A
:1005F000669566956695617087E00E944800612F58
:1006000066956695617086E00E944800612F669548
:10061000617085E00E944800117084E0612F0E94A3
:1006200048000E9437021F910895EF92FF921F9396
:10063000DF93CF93CDB7DEB72A970FB6F894DEBF1E
:100640000FBECDBF9C0140E07E010894E11CF11C6F
:1006500010C0F701E40FF11DC9016AE070E00E94CB
:10066000E90580834F5FC9016AE070E00E94E905F7
:100670009B012115310569F7142F11507E01089453
:10068000E11CF11C0BC0E12FFF27E7FDF095EE0DFB
:10069000FF1D8081805D0E94CF02115017FFF3CFB4
:1006A0002A960FB6F894DEBF0FBECDBFCF91DF9173
:1006B0001F91FF90EF9008951F93CF93DF93EC016C
:1006C00010E003C00E94CF021F5FFE01E10FF11D89
:1006D00080818823B9F7DF91CF911F910895089504
:1006E000882311F48DE103C0813029F48EE160E0AC
:1006F0000E9448000895823021F48FE160E00E945A
:1007000048000895882311F48DE103C0813029F455
:100710008EE161E00E9448000895823021F48FE16B
:1007200061E00E9448000895AF92BF92CF92DF929D
:10073000EF92FF920F931F93DF93CF9300D00F920E
:10074000CDB7DEB70E94970280E690E00E945C037E
:1007500081E060E00E949B0281E090E00E9415032E
:10076000FF24F39400E011E05E010894A11CB11C89
:1007700090E9C92E91E0D92EE4C088E10E94DC0006
:10078000813049F41F5F84EF91E0F6013197F1F772
:100790000197D9F70DC089E10E94DC00813089F40E
:1007A000115084EF91E0F6013197F1F70197D9F7F5
:1007B00081E0602F0E949B02812F90E00E94150330
:1007C000C0C08AE10E94DC00813009F0BAC0F501A6
:1007D000E00FF11D10830F5F033049F0602F0E947E
:1007E0009B0281E090E00E94150311E0AAC080E026
:1007F00090E00E94E30199819817B9F481E061E0EB
:100800000E949B0281E090E00E94E3019A81981788
:1008100061F481E062E00E949B0282E090E00E942D
:10082000E3019B81981709F441C00E94970281E778
:1008300090E00E945C0381E060E00E949B028DE7F3
:1008400090E00E945C038F2D90E00E941503F394CA
:1008500080E197E2F6013197F1F70197D9F784E04B
:10086000F81661F10E94970286E890E00E945C030E
:1008700081E060E00E949B0281E990E00E945C03BD
:1008800080E197E2F6013197F1F70197D9F70E94DD
:10089000970280E690E00E945C0381E060E00E94A5
:1008A0009B0281E090E00E94150348C081E063E074
:1008B0000E949B0284E0F81609F046C00E9497024D
:1008C0008DE990E00E945C0301E010E081E064E0CB
:1008D0000E949B0280E197E2F6013197F1F70197C0
:1008E000D9F7C8010E9415030F5F1F4F0B30110588
:1008F00069F70E94970286E890E00E945C0381E01D
:1009000060E00E949B0281E990E00E945C0380E12C
:1009100097E2F6013197F1F70197D9F70E94970214
:1009200080E690E00E945C0381E060E00E949B0210
:1009300081E090E00E941503FF24F39400E011E0B1
:100940001CCF033009F019CF0E9497028CEA90E087
:100950000E945C0310E080E9E82E81E0F82E80E040
:100960000E94820381E00E94820382E00E9482034F
:1009700088E893E1F7013197F1F70197D9F780E023
:100980000E94700381E00E94700382E00E94700365
:1009900088E893E1F7013197F1F70197D9F71F5FE5
:1009A0001330E9F680E197E220E931E0F90131976F
:1009B000F1F70197D9F70F900F900F90CF91DF913A
:1009C0001F910F91FF90EF90DF90CF90BF90AF906D
:1009D00008950F931F93CF93DF930E94970280E6B1
:1009E00090E00E945C0381E060E00E949B0281E055
:1009F00090E00E94150300E011E0C0E9D1E088E139
:100A00000E94DC00813049F41F5F84EF91E0FE0119
:100A10003197F1F70197D9F70DC089E10E94DC0009
:100A2000813089F4115084EF91E0FE013197F1F7A4
:100A30000197D9F781E0602F0E949B02812F90E0FF
:100A40000E9415032EC08AE10E94DC00813049F526
:100A5000802F90E0612F0E94900184EF91E0FE01D1
:100A60003197F1F70197D9F70F5F033051F081E02B
:100A7000602F0E949B0281E090E00E94150311E02C
:100A8000BECF0E94970289EB90E00E945C0380E158
:100A900097E220E931E0F9013197F1F70197D9F7B1
:100AA00003C0033009F0ABCFDF91CF911F910F91BD
:100AB0000895CF93DF930E9441000E94A9020E94F3
:100AC0006F030E9412010E94160184EC90E00E94C4
:100AD0005C0381E060E00E949B028DEC90E00E944C
:100AE0005C03C0E9D1E088E10E94DC00813009F0BC
:100AF0003DC00E9497028DED90E00E945C0380E172
:100B000097E2FE013197F1F70197D9F70E9494031C
:100B10000E9497028CEE90E00E945C0380E197E2D5
:100B2000FE013197F1F70197D9F70E94E9040E947D
:100B300097028BEF90E00E945C0380E197E2FE0158
:100B40003197F1F70197D9F70E94940381E060E0B3
:100B50000E949B028BE091E00E945C0388E893E195
:100B6000FE013197F1F70197D9F724C089E10E947E
:100B7000DC00813009F0B7CF0E9497028BE191E051
:100B80000E945C0380E197E2FE013197F1F7019743
:100B9000D9F70E94940381E060E00E949B028AE200
:100BA00091E00E945C0388E893E1FE013197F1F740
:100BB0000197D9F70E94970284EC90E00E945C03B1
:100BC00081E060E00E949B028DEC90E00E945C035B
:100BD0008ACFAA1BBB1B51E107C0AA1FBB1FA617C8
:100BE000B70710F0A61BB70B881F991F5A95A9F7D6
:0E0BF00080959095BC01CD010895F894FFCF3B
:100BFE00334420303E2B20313E2D20323E6F6B2071
:100C0E000077726F6E672070617373200054727973
:100C1E00204E6F2E200074727920616761696E20FC
:100C2E0000777269746520506173732000426C6F97
:100C3E00636B203130205345437320005061737332
:100C4E0020436F72726563740077726974652064F5
:100C5E006F6E650057656C636F6D65200070727303
:100C6E00732030204164202F2031472000656E74A0
:100C7E006572206F6C64207061737300656E7465AD
:100C8E0072204E6577207061737300656E746572A5
:100C9E0020636F6E662070617373007061737320D2
:100CAE00636F6E6669726D65642000656E74657241
:100CBE00207468652070617373004F70656E696E85
:0A0CCE0067204C6F636B6572200015
:00000001FF
